:100000000C942A000C9434000C9434000C943400AA
:100010000C9434000C9434000C9434000C94340090
:100020000C9434000C9434000C9434000C94340080
:100030000C9434000C9434000C9434000C94340070
:100040000C9434000C9434000C9434000C94340060
:100050000C94340011241FBECFE5D8E0DEBFCDBF25
:100060000E9457020C94E6020C940000442319F0FD
:100070004130C9F10895813091F028F08230D9F0F3
:10008000833029F108952AB381E090E002C0880FFF
:10009000991F6A95E2F7809582238ABB089527B35A
:1000A00081E090E002C0880F991F6A95E2F7809581
:1000B000822387BB089524B381E090E002C0880FBB
:1000C000991F6A95E2F78095822384BB089521B336
:1000D00081E090E002C0880F991F6A95E2F7809551
:1000E000822381BB0895813089F028F08230C9F0E5
:1000F000833011F108952AB381E090E002C0880FA7
:10010000991F6A95E2F7822B8ABB089527B381E095
:1001100090E002C0880F991F6A95E2F7822B87BB97
:10012000089524B381E090E002C0880F991F6A957A
:10013000E2F7822B84BB089521B381E090E002C0F6
:10014000880F991F6A95E2F7822B81BB089544239B
:1001500019F04130C9F10895813091F028F08230D2
:10016000D9F0833029F108952BB381E090E002C0EB
:10017000880F991F6A95E2F7809582238BBB0895BB
:1001800028B381E090E002C0880F991F6A95E2F7DA
:100190008095822388BB089525B381E090E002C05A
:1001A000880F991F6A95E2F78095822385BB089591
:1001B00022B381E090E002C0880F991F6A95E2F7B0
:1001C0008095822382BB0895813089F028F08230A7
:1001D000C9F0833011F108952BB381E090E002C0A3
:1001E000880F991F6A95E2F7822B8BBB089528B37D
:1001F00081E090E002C0880F991F6A95E2F7822B98
:1002000088BB089525B381E090E002C0880F991F54
:100210006A95E2F7822B85BB089522B381E090E0D6
:1002200002C0880F991F6A95E2F7822B82BB08955E
:10023000CF93C82F40E061E081E00E94A70040E03A
:1002400062E081E00E94A70040E063E081E00E945C
:10025000A7008BB39C2F907F8F70892B8BBB41E0C5
:1002600063E081E00E94A7008FE99FE00197F1F72A
:1002700000C0000040E063E081E00E94A7002BB3D3
:1002800030E1C39FC0011124922F9F70892B8BBB3B
:1002900041E063E081E00E94A7008FE99FE00197C1
:1002A000F1F700C0000040E063E081E00E94A70099
:1002B0008FE39FE10197F1F700C00000CF9108950F
:1002C00041E061E081E00E94360041E062E081E0CF
:1002D0000E94360041E063E081E00E94360041E088
:1002E00064E080E00E94360041E065E080E00E942A
:1002F000360041E066E080E00E94360041E067E0C1
:1003000080E00E9436002FEF81EE94E02150804083
:100310009040E1F700C0000082E00E94180183E3F2
:100320000E94180182E30E94180188E20E941801CD
:100330008CE00E94180181E00E94180186E00E9472
:1003400018018FE39CE90197F1F700C000000895C0
:1003500081E00E9418010895CF93C82F41E061E029
:1003600081E00E94A70040E062E081E00E94A700D7
:1003700040E063E081E00E94A7008BB39C2F907F58
:100380008F70892B8BBB41E063E081E00E94A70066
:100390008FE99FE00197F1F700C0000040E063E0C3
:1003A00081E00E94A7002BB330E1C39FC00111245C
:1003B000922F9F70892B8BBB41E063E081E00E940C
:1003C000A7008FE99FE00197F1F700C0000040E02F
:1003D00063E081E00E94A7008FE39FE10197F1F7BE
:1003E00000C00000CF910895CF93DF93EC01888186
:1003F000882331F021960E94AC0189918111FBCFB5
:10040000DF91CF910895CF93DF93CDB7DEB72A97D1
:100410000FB6F894DEBF0FBECDBF2AE030E0AE01CC
:100420004F5F5F4F0E949A02CE0101960E94F40135
:100430002A960FB6F894DEBF0FBECDBFDF91CF91E5
:10044000089541E062E082E00E943600089541E0B4
:1004500067E082E00E943600089541E063E083E0B7
:100460000E943600089541E062E082E00E94A70009
:10047000089541E067E082E00E94A700089541E00E
:1004800063E083E00E94A700089540E062E082E01C
:100490000E94A700089540E067E082E00E94A70064
:1004A000089540E063E083E00E94A70008950E9461
:1004B00021020E9427020E942D020E9460010E94D8
:1004C0008F0260E070E0CB010E9403020E9496025E
:1004D000C82F813619F40E94330218C0823619F4ED
:1004E0000E94450213C0833619F40E9439020EC0DF
:1004F000843619F40E944B0209C0853619F40E9413
:100500003F0204C0863611F40E9451020E94A801E5
:100510006C2F70E080E090E00E940302D7CFBD987E
:10052000BE9ABF98BC9883E48DB90895779BFECF9F
:100530008FB108952532310520F4223010F00C944B
:10054000A502FA011082CA010895BB272A3051F48E
:10055000992342F4BDE290958095709561957F4F07
:100560008F4F9F4F0C94B502BB27FA01A62F62173D
:10057000710581059105330B30FB66F0AA27660FE4
:10058000771F881F991FAA1FA21710F0A21B63953F
:100590003850A9F7A05DAA3308F0A95DA19336F7FA
:1005A000B111B1931082CA010C94D602DC01FC0196
:1005B000672F71917723E1F7329704C07C916D9397
:1005C00070836291AE17BF07C8F30895F894FFCF08
:00000001FF
